:020000040800F2
:10000000005000208D550008050500080705000870
:10001000090500080B0500080D0500080000000098
:10002000000000000000000000000000B1460008D1
:100030000F05000800000000514700089547000820
:10004000D5550008D5550008D5550008D5550008E8
:10005000D5550008D5550008D5550008D5550008D8
:10006000D5550008D5550008D5550008D5550008C8
:10007000D5550008D5550008D5550008D5550008B8
:10008000D5550008D5550008D5550008D5550008A8
:1000900011050008D5550008D5550008D5550008AC
:1000A000D555000821050008D5550008D55500088C
:1000B000D5550008D5550008D5550008D555000878
:1000C000D5550008D5550008D5550008D555000868
:1000D000D5550008D5550008D5550008D555000858
:1000E000D5550008D5550008D5550008000000007A
:1000F0000000000000000000000000000000000000
:0C01000000000000000000005FF808F1A3
:1001100008B5064B1A783AB9054A1AB10548AFF343
:100120000080024B01221A7008BD00BF800500202C
:10013000000000003056000808B5034B1BB103490E
:100140000348AFF3008008BD0000000084050020D4
:10015000305600082DE9F04389B004AD0024049422
:10016000059406940794274B9A6942F010029A610D
:100170009A6902F010020092009A9A6942F02002F5
:100180009A619A6902F020020192019A9A6942F0FA
:1001900004029A619A6902F004020292029A9A6930
:1001A00042F008029A619B6903F008030393039BE2
:1001B000DFF8549022464FF40051484603F084FA89
:1001C000124E22460B21304603F07EFA4FF40053C4
:1001D00004934FF00108CDF8148006940227079786
:1001E0002946484603F07EF90B230493CDF814808A
:1001F000069407972946304603F074F909B0BDE824
:10020000F08300BF0010024000100140000C0140CC
:1002100008B500F02FFA4FF40051044803F05AFAE1
:100220004FF4FA7004F0D3F8F5E700BF0010014076
:1002300008B50268034B9A4200D008BD02F068FD81
:10024000FBE700BF002C014072B6FEE708B50D4881
:100250000D4B03604FF48273436000238360C360DF
:10026000036143614FF4007282610822C26103623C
:10027000436283620A23C36203F024FB00B908BD12
:10028000FFF7E2FFA00500200030014010B594B058
:100290000AAC28220021204605F09DF90023059391
:1002A000069307930893099301930293039304938E
:1002B00001220A924FF480330B930E920222119284
:1002C00012934FF4E0131393204602F05DFDA8B99A
:1002D0000F2305930221069107904FF48062089244
:1002E000099005A802F084FF50B9102301930490EF
:1002F00001A803F067F828B914B010BDFFF7A4FFF8
:10030000FFF7A2FFFFF7A0FF00B589B002F0EEFCF7
:10031000FFF7BCFFFFF71EFFFFF798FF00F06AF83A
:1003200000F0E6F80DF1040CDFF824E0BEE80F0061
:10033000ACE80F009EE807008CE80700002101A848
:1003400004F011F8034B186004F008F8FEE700BF52
:10035000485600089C050020034B0360034B0B60CC
:1003600080231360704700BFF8070020F8050020C5
:1003700010B582B08DF807000C4C002202212046F7
:1003800003F0A2F900220821204603F09DF94FF066
:10039000FF3301220DF10701054803F0EEFA0122B7
:1003A0000821204603F090F902B010BD000C014076
:1003B000A005002070B506460D460C4C0122022116
:1003C000204603F081F900220821204603F07CF941
:1003D0004FF0FF33AAB23146054803F0CEFA0122AE
:1003E0000821204603F070F970BD00BF000C0140E9
:1003F000A005002010B52E4C00220121204603F05C
:1004000063F90A2002F096FC01221146204603F00F
:100410005BF90A2002F08EFCAE20FFF7A9FFD52081
:10042000FFF7A6FF8020FFF7A3FFA820FFF7A0FF9C
:100430003F20FFF79DFFD320FFF79AFF0020FFF733
:1004400097FF4020FFF794FF8D20FFF791FF1420C6
:10045000FFF78EFF2020FFF78BFF0020FFF788FFBC
:10046000A120FFF785FFC820FFF782FFDA20FFF702
:100470007FFF1220FFF77CFF8120FFF779FFCF205D
:10048000FFF776FFD920FFF773FFF120FFF770FF2A
:10049000DB20FFF76DFF4020FFF76AFFA420FFF786
:1004A00067FFA620FFF764FFAF20FFF761FF10BDD5
:1004B000000C014008B54FF480610248FFF77AFF55
:1004C00008BD00BF4C080020002306E010F803C060
:1004D000034A02F803C001339BB28B42F6D3704744
:1004E0004C08002008B5FFF7EFFFFFF7E3FF08BD5A
:1004F00008B54FF480610248FFF7F4FF08BD00BF64
:1005000000000020FEE7FEE7FEE7FEE7FEE770479B
:1005100008B5024801F000FA08BD00BF781B0020B2
:1005200008B5024800F0E6FA08BD00BF4C0C0020F8
:1005300000B583B0104B9A6942F001029A619A6942
:1005400002F001020092009ADA6942F08052DA6108
:10055000DB6903F080530193019B00220F216FF0B0
:10056000010003F00BF9054A536823F0E06343F000
:100570000073536003B000BD001002400000014052
:1005800000B587B000230293039304930593026898
:10059000114B9A4201D007B000BD03F560439A6940
:1005A00042F480529A619A6902F480520092009A51
:1005B0009A6942F004029A619B6903F00403019373
:1005C000019BA0230293022303930323059302A913
:1005D000024802F087FFDEE70030014000080140DA
:1005E00030B589B004461E4B9A6942F400629A61A4
:1005F0009B6903F400630193019B02A903A802F025
:10060000C3FE02F0B1FE174AA2FB00239B0C013B84
:100610001548164A026040F2E732C2604360002388
:1006200003618360836100F057FB054610B12846E3
:1006300009B030BD0C4800F027FA05460028F6D175
:10064000192003F0ABF80F2C02D901231D46EEE769
:1006500000222146192003F091F8054B1C60E6E7C3
:100660000010024083DE1B434C0C0020002C014094
:100670006404002008B500220F49104804F014F962
:1006800070B90F490D4804F026F960B90D490B48BF
:1006900004F04EFF50B9094804F024F948B908BDE8
:1006A000FFF7D2FDEDE7FFF7CFFDEFE7FFF7CCFD5A
:1006B000F1E7FFF7C9FDF2E734040020940C0020B5
:1006C0003C0500205004002012230B800048704796
:1006D0002004002004230B80004870471C040020E5
:1006E000002393421DD200B510E00CF1370C01F845
:1006F00013C000014FEA430C0CF1010C4FF0000E47
:1007000001F80CE00133DBB2934209D24FEA107CCE
:10071000B0F1204FE9D20CF1300C01F813C0E8E73A
:1007200000BD70470B4BD3F8E807D3F8EC27D3F89C
:10073000F037C01800D1704710B51446082206499A
:10074000FFF7CEFF0422044B03F110012046FFF710
:10075000C7FF10BD00F0FF1F0204002008B51A23D8
:100760000B80FFF7DFFF014808BD00BF0004002039
:1007700008B50A4628B90549054804F02AFD03488A
:1007800008BD0249024804F024FDF8E7580F002094
:100790007056000810B50A46034C2146034804F081
:1007A00018FD204610BD00BF580F002080560008DD
:1007B00008B50A4628B90549054804F00AFD03486A
:1007C00008BD0249024804F004FDF8E7580F002074
:1007D0008856000808B50A4628B90549054804F0B6
:1007E000F8FC034808BD0249024804F0F2FCF8E7AF
:1007F000580F0020945600080020704700207047D2
:1008000010B5064C00220649204604F098FE054922
:10081000204604F09CFE002010BD00BF940C002078
:10082000581100205815002010B50146044C2046F0
:1008300004F08DFE204604F090FE002010BD00BFA5
:10084000940C0020022804D005D808B1022070477B
:1008500070470120704702207047000002680D4B6E
:100860009A4200D0704700B583B003F5DA33DA69F5
:1008700042F40002DA61DB6903F400030193019B97
:1008800000220521142002F079FF142002F086FFD7
:1008900003B000BD005C004008B500F52671D0F83B
:1008A000D40204F037F808BD08B501EB810300EB72
:1008B000C303D3F86421D0F8D40204F058F808BD7B
:1008C00008B501EB810300EBC3035A6AD0F8D402E8
:1008D00004F093F808BD08B5D0F8D40204F034F958
:1008E00008BD10B504468379022B09D10121D4F843
:1008F000D40204F012F9D4F8D40204F0E6F810BDE2
:10090000FFF7A2FCF2E7000010B50446D0F8D402CD
:1009100004F006F9A37A23B1024A136943F00603EF
:10092000136110BD00ED00E008B5D0F8D40204F06A
:1009300000F908BD10B504461D48C0F8D442C4F8FB
:10094000C0021C4B03600823037102238371002340
:100950008372C372037300F07EFA30BB1823002247
:100960001146D4F8C00201F0F2F958230022802188
:10097000D4F8C00201F0EBF9C02300228121D4F8A1
:10098000C00201F0E4F94FF4887300220121D4F889
:10099000C00201F0DCF94FF4807300228221D4F808
:1009A000C00201F0D4F9002010BDFFF74DFCD5E7DF
:1009B000781B0020005C004008B5D0F8C00200F0B1
:1009C000C1FAFFF73FFF08BD08B594461A466346D3
:1009D000D0F8C00201F078F8FFF734FF08BD08B581
:1009E000D0F8C00201F0B2F8FFF72CFF08BD08B53F
:1009F000D0F8C00201F02CF9FFF724FF08BD08B5BC
:100A0000D0F8C00201F064F9FFF71CFF08BDD0F870
:100A1000C03211F0800F08D101F07F0101EB81019C
:100A200003EBC10393F85201704701F07F0101EB22
:100A3000810103EBC103987C704708B5D0F8C00270
:100A400000F057FFFFF7FEFE08BD08B5D0F8C00262
:100A500001F0D8F8FFF7F6FE08BD08B5D0F8C002DF
:100A600001F0AAF8FFF7EEFE08BD08B5D0F8C00205
:100A700001F0BFF808BD0000004870475819002079
:100A8000704770477047000090F83D30012B27D128
:100A9000022380F83D300268D36843F00103D3603D
:100AA0000368114A934210D0B3F1804F0DD0A2F5E4
:100AB0009432934209D002F58062934205D01A68BD
:100AC00042F001021A60002070479A6802F00702A3
:100AD000062A07D01A6842F001021A600020704707
:100AE0000120704700207047002C0140704770477C
:100AF0007047704770B504460368DE681D6915F0DD
:100B0000020F10D016F0020F0DD06FF002021A6122
:100B10000123037703689B6913F0030F5ED0FFF78F
:100B2000E6FF0023237715F0040F12D016F0040F10
:100B30000FD023686FF004021A6102232377236821
:100B40009B6913F4407F4FD02046FFF7D0FF00236E
:100B5000237715F0080F12D016F0080F0FD0236876
:100B60006FF008021A61042323772368DB6913F00E
:100B7000030F40D02046FFF7BAFF0023237715F07C
:100B8000100F12D016F0100F0FD023686FF0100264
:100B90001A61082323772368DB6913F4407F31D07F
:100BA0002046FFF7A4FF0023237715F0010F02D0A2
:100BB00016F0010F2DD115F0800F02D016F0800F26
:100BC0002FD115F0400F02D016F0400F31D115F0A3
:100BD000200F02D016F0200F33D170BDFFF786FF33
:100BE0002046FFF785FF9CE72046FFF77FFF204662
:100BF000FFF77EFFABE72046FFF778FF2046FFF7C1
:100C000077FFBAE72046FFF771FF2046FFF770FF36
:100C1000C9E723686FF001021A612046FFF708FB5D
:100C2000C9E723686FF080021A61204600F081F85E
:100C3000C7E723686FF040021A612046FFF759FFAB
:100C4000C5E723686FF020021A61204600F070F8B3
:100C5000C3E7000003681F4A90420AD0B0F1804FFA
:100C600007D0A2F59432904203D002F58062904200
:100C700003D123F070034A681343164A90420AD006
:100C8000B0F1804F07D0A2F59432904203D002F524
:100C90008062904203D123F44073CA68134323F067
:100CA00080034A69134303608B68C3620B688362E5
:100CB000084B98420AD001234361036913F0010FE6
:100CC00003D0036923F00103036170470B690363D9
:100CD000F1E700BF002C014040B310B5044690F886
:100CE0003D30F3B1022384F83D30214651F8040B26
:100CF000FFF7B0FF012384F8463084F83E3084F8D3
:100D00003F3084F8403084F8413084F8423084F831
:100D1000433084F8443084F8453084F83D30002076
:100D200010BD80F83C30FFF7ADFEDBE701207047D7
:100D30007047704710B512F4804F46D00468B4F87D
:100D400050309BB291F800C003EBCC03023304EBAC
:100D50004304B4F80044C4F309048B69A3422AD3C2
:100D60001B1B8B618B6983B9D0F800E03EF82C30F7
:100D70009BB223F4804323F0700383F4005343F4C5
:100D8000004343F080032EF82C3012F0400F0FD0B8
:100D9000026891F800C032F82C309BB223F4E04393
:100DA00023F0700343F4004343F0C00322F82C30D7
:100DB00024B9204610BD00238B61D3E723460A895E
:100DC0004969006801F07BFFF3E70468B4F850302C
:100DD0009BB291F800C003EBCC03063304EB430451
:100DE000B4F80044C4F309048B69A34230D31B1B3D
:100DF0008B618B6983B9D0F800E03EF82C309BB250
:100E000023F4804323F0700383F4005343F400433E
:100E100043F080032EF82C3012F0400F0FD10268FF
:100E200091F800C032F82C309BB223F4E04323F059
:100E3000700343F4004343F0C00322F82C30002C2D
:100E4000B7D023464A894969006801F038FFB0E706
:100E500000238B61CDE738B5002870D0044690F8A8
:100E60009132ABB1032384F891320023637120687F
:100E700000F099FF234653F8040B0ECB00F083FFDC
:100E800058B1022384F8913201231D46284638BD0B
:100E900080F89032FFF7E2FCE4E70146206800F0BA
:100EA0008DFF0346A8B902462079904217D902EB7C
:100EB000820104EBC101012048740A740020C87447
:100EC00008624862013202EB8201C9006050D2B26E
:100ED000EAE7022384F8913201231D46D6E79842BF
:100EE00017D903EB830204EBC202002182F85111EF
:100EF00082F8503182F85311C2F86011C2F86411BF
:100F000003EB830204EBC202C2F868110133DBB2C7
:100F1000E5E7234653F8040B0ECB00F051FF0546DE
:100F200028B1022384F8913201231D46AEE7607395
:100F3000012384F89132206801F0BAFAA6E7012370
:100F40001D46A3E790F89032012B13D010B504464C
:100F50004FF0010380F89032006800F01BFF012180
:100F60002046FFF78EFD206801F0A0FA002084F8EB
:100F7000900210BD0220704770B505460C4616461B
:100F800012F0400F00F00D810268B2F850309BB2B1
:100F9000097803EBC103023302EB4302B2F80024E9
:100FA000C2F30902A36993424ED99B1AA361A369B4
:100FB000002B66D16378002B49D12B68B3F8502001
:100FC00092B2134403EB0113B3F80424C2F30902F1
:100FD000A3F80424B3F804246FEA42426FEA5242B1
:100FE00092B2A3F804242B686278002A3CD1B3F8AB
:100FF000502092B21344227803EB0213B3F80C246E
:10100000C2F30902A3F80C24B3F80C246FEA42429D
:101010006FEA524292B2A3F80C2421782846FFF7D7
:101020004FFC16F4804F41D02A68217832F82130E5
:101030009BB223F4E04323F0700343F4404343F0B6
:10104000800322F8213031E00023A361AFE7012BB8
:10105000C9D12B68B3F8502092B2134403EB0113AB
:101060000022A3F80424BEE7012AD6D1B3F8502009
:1010700092B21344227803EB02130022A3F80C244B
:10108000CBE716F4804F0DD0286830F821309BB2A2
:1010900023F4E04323F0700343F4404343F0800320
:1010A00020F8213094F82430012B12D02A682178BE
:1010B00032F821309BB223F4E04323F0400383F065
:1010C000300343F4004343F0800322F82130002032
:1010D00070BD636913446361E3691344E361216A8A
:1010E0002369994224D3C91A21626278002A43D124
:1010F0002A68B2F8501089B20A44217802EB011232
:10110000B2F80414C1F30901A2F804143E2B1AD951
:10111000580913F01F0F00D10138B2F8041489B236
:10112000800280B2014341F40041A2F8041425E09A
:1011300019B984F824101346D7E7002384F8243023
:1011400023620B46D1E74BB9B2F804146FEA414170
:101150006FEA514189B2A2F804140FE0590813F064
:10116000010F00D00131B2F8040480B2890289B2C3
:101170000143A2F8041401E0012A06D09BB222899F
:101180006169286801F09CF990E72A68B2F850106C
:1011900089B20A44217802EB011299B2A2F8041430
:1011A000ECE70268B2F850309BB2097803EBC10358
:1011B000063302EB4302B2F80024C2F30902A3692A
:1011C00093424FD39B1AA361A369002B67D1637825
:1011D000002B4AD12B68B3F8502092B2134403EB92
:1011E0000113B3F80424C2F30902A3F80424B3F8EA
:1011F00004246FEA42426FEA524292B2A3F80424F6
:101200002B686278002A3DD1B3F8502092B2134483
:10121000227803EB0213B3F80C24C2F30902A3F8FB
:101220000C24B3F80C246FEA42426FEA524292B2A5
:10123000A3F80C2421782846FFF742FB16F4804FD0
:101240007FF434AF2A68217832F821309BB223F43E
:10125000E04323F0700343F4404343F0800322F85B
:10126000213023E70023A361AEE7012BC8D12B680F
:10127000B3F8502092B2134403EB01130022A3F8F9
:101280000424BDE7012AD5D1B3F8502092B213440B
:10129000227803EB02130022A3F80C24CAE716F409
:1012A000804F0DD1286830F821309BB223F4E04301
:1012B00023F0700343F4404343F0800320F82130CF
:1012C00094F82430012B7FF4F1AE63691344636119
:1012D000E3691344E361216A2369994224D3C91A5B
:1012E00021622A686178002942D1B2F8501089B28F
:1012F0000A44217802EB0112B2F80C14C1F309017F
:10130000A2F80C143E2B1AD9580913F01F0F00D164
:101310000138B2F80C1489B2800280B2014341F462
:101320000041A2F80C1425E019B984F824101346E2
:10133000D7E70023236284F824300B46D1E74BB96A
:10134000B2F80C146FEA41416FEA514189B2A2F838
:101350000C140FE0590813F0010F00D00131B2F85E
:101360000C0480B2890289B20143A2F80C1401E096
:10137000012906D09BB262896169286801F0A0F852
:1013800094E6B2F8501089B20A44217802EB0112B7
:1013900099B2A2F80C14EDE72DE9F0410546286852
:1013A000B0F8443013F4004F00F0A082B0F844408D
:1013B000A3B214F00F0440F0E08013F0100F6CD0D3
:1013C00003889AB213F4006F40F09A8012F4004F31
:1013D000E5D003889BB223F070031B051B0D43F07F
:1013E000800303802868B0F850309BB295F85021F4
:1013F00003EBC203063300EB4303B3F80034C3F33B
:101400000903C5F86C318BB1D5F8641171B1B5F829
:10141000562101F054FCD5F86431D5F86C21134401
:10142000C5F8643100212846FFF73EFA2A68138880
:1014300099B213F4006FB2D101F44051B1F5405F9D
:10144000ADD0B2F850309BB21A44B2F80C34C3F3AA
:101450000903A2F80C34D5F860313E2B74D9590930
:1014600013F01F0F00D10139B2F80C349BB289027E
:1014700089B20B4343F40043A2F80C342A68138862
:101480009BB223F4804323F0700383F4405343F46E
:10149000004343F08003138081E703889BB223F469
:1014A000E14323F070036FEA43436FEA53439BB277
:1014B00003802A68B2F850309BB2297C03EBC10349
:1014C000023302EB4302B2F80034C3F30903EB62C8
:1014D0006A6A1A446A6200212846FFF7F1F96B7BB9
:1014E000002B3FF45CAFAB6A002B7FF458AF6B7BF3
:1014F0002A6843F08003A2F84C3000236B734EE758
:10150000B0F850309BB295F8502103EBC20306337C
:1015100000EB4303B3F80034C3F30903C5F86C319F
:10152000B5F8562105F5267101F0C9FB2A68138824
:101530009BB223F070031B051B0D43F08003138047
:101540002846FFF7A9F92AE74BB9B2F80C346FEA3D
:1015500043436FEA53439BB2A2F80C348EE7590819
:1015600013F0010F00D00131B2F80C3498B28B02A5
:101570009BB20343A2F80C3480E730F824309EB2CB
:1015800013F4004F50D116F0800F3FF408AF04EB76
:101590008401C900103129442A6832F824309BB2F2
:1015A00023F4E14323F070036FEA43436FEA5343AC
:1015B0009BB222F8243004EB840305EBC303DB7CED
:1015C000012B00F0F38016F4807F40F08A812868B8
:1015D000B0F850309BB204EB840205EBC202167CDB
:1015E00003EBC603023300EB4303B3F80034C3F349
:1015F0000903621C02EB820255F832209A4240F243
:101600005381671C07EB8707D21A45F83720621C05
:1016100002EB820255F83220002A40F04C8131461C
:101620002846FFF74DF9BAE630F824309BB223F094
:1016300070031B051B0D43F0800320F8243004EBDE
:101640008401C90001F5A87105EB010804EB8403CE
:1016500005EBC30393F85C31002B42D12868B0F846
:1016600050309BB204EB840205EBC20292F8502189
:1016700003EBC203063300EB4303B3F80074C7F374
:10168000090717BB04EB840305EBC303D3F86C21F4
:101690003A44C3F86C21D3F864213A44C3F8642176
:1016A000D3F868313BB104EB840305EBC303D3F8F3
:1016B00060319F4275D204EB840305EBC30393F8BA
:1016C00050112846FFF7F0F85DE704EB840105EBC5
:1016D000C1013B46B1F85621D1F8641101F0EFFA8F
:1016E000D0E704EB840305EBC30393F85331022BDB
:1016F00035D0296804EB840205EBC20292F8500150
:1017000031F820309BB223F4E04323F0700343F41C
:10171000004343F0C00321F82030286892F850219C
:1017200030F8223013F4804F20D0B0F850309BB204
:1017300003EBC203023300EB4303B3F80074C7F3B7
:101740000907002F9ED004EB840105EBC1013B4645
:10175000B1F85821D1F8641101F0B1FA92E732469C
:1017600041462846FFF7E6FA07468BE7B0F85030C7
:101770009BB203EBC203063300EB4303B3F80074E0
:10178000C7F30907002F3FF47DAF04EB840105EB9D
:10179000C1013B46B1F85A21D1F8641101F08FFA2A
:1017A00070E74146286800F09EFEECE6631C03EB00
:1017B0008303DB000022EA5004EB840305EBC30340
:1017C0001B7F1BB316F0400F3BD004EB840305EBEB
:1017D000C3035B7C1BBB2B68B3F8502092B213444D
:1017E00004EB840205EBC202127C03EB0213B3F894
:1017F0000424C2F30902A3F80424B3F804246FEA12
:1018000042426FEA524292B2A3F8042404EB8404E9
:1018100005EBC404217C2846FFF752F8BFE5012BF5
:10182000F4D12B68B3F8502092B2134404EB840235
:1018300005EBC202127C03EB02130022A3F804247E
:10184000E4E72B6804EB840205EBC202527CD2B9B8
:10185000B3F8502092B2134404EB840205EBC202A9
:10186000127C03EB0213B3F80C24C2F30902A3F8B1
:101870000C24B3F80C246FEA42426FEA524292B24F
:10188000A3F80C24C2E7012AC0D1B3F8502092B2C9
:10189000134404EB840205EBC202127C03EB021337
:1018A0000022A3F80C24B1E7621C02EB8202D200F2
:1018B0000027AF50ABE604EB840205EBC202566A88
:1018C0001E445662013404EB840205EBC2025268E6
:1018D00004EB840405EBC4041344636000F003FECE
:1018E0005DE532462846FFF747FB58E50020BDE896
:1018F000F08190F89032012B0CD010B504460123F2
:1019000080F890324173006800F0CAFD002084F82E
:10191000900210BD0220704710B584B004460068E4
:1019200000F0C8FD10F4004F20D110F4806F21D1D9
:1019300010F4804F2FD110F4005F37D110F4805F86
:101940003ED110F4006F40F0878010F4007F40F02B
:10195000AE8010F4807F27D02268B2F844309BB26A
:1019600023F480739BB2A2F844301DE02046FFF7B9
:1019700013FD19E02268B2F844309BB223F480636F
:101980009BB2A2F844302046FEF7ABFF0021204670
:10199000FFF7AFFF08E02268B2F844309BB223F4AF
:1019A00080439BB2A2F8443004B010BD2268B2F864
:1019B00044309BB223F400539BB2A2F84430F3E7C7
:1019C0002268B2F840309BB223F004039BB2A2F825
:1019D00040302268B2F840309BB223F008039BB23B
:1019E000A2F840302046FEF79FFF2268B2F844304C
:1019F0009BB223F480539BB2A2F84430D4E7226810
:101A000032F8231004AA02EB430222F8101C01331F
:101A1000DBB2072BF3D92268B2F840309BB243F017
:101A20000103A2F840302268B2F840309BB223F0A4
:101A300001039BB2A2F840302368B3F8442012F4AB
:101A4000806FF9D0B3F8442092B222F4806292B24F
:101A5000A3F8442000230BE00023DAE7226804A95E
:101A600001EB430131F8101C22F823100133DBB2E3
:101A7000072BF3D92268B2F840309BB243F0080339
:101A8000A2F840302268B2F844309BB223F40063DD
:101A90009BB2A2F844302268B2F840309BB243F0C7
:101AA0000403A2F840302046FEF72EFF7CE72268B0
:101AB000B2F844309BB223F400739BB2A2F84430D6
:101AC0002046FEF708FF6FE710B50446084611F000
:101AD000800F26D101F0070C0CEB8C0E4FEACE0ED6
:101AE0000EF5A87E04EB0E010CEB8C0C04EBCC0C79
:101AF0004FF0000E8CF851E100F0070008700A6109
:101B0000CB70022B1DD094F89032012B1CD00123F6
:101B100084F89032206800F064F9002084F8900284
:101B200010BD01F0070C0CEB8C01C90010312144F1
:101B30000CEB8C0C04EBCC0C4FF0010E8CF811E08C
:101B4000DAE700230B71DEE70220E9E710B504466F
:101B50000A4611F0800F1FD101F0070000EB80034F
:101B6000DB0003F5A873E11800EB800004EBC00074
:101B7000002380F8513102F007020A7094F8903285
:101B8000012B17D0012384F89032206800F027FB46
:101B9000002084F8900210BD01F0070000EB8003E4
:101BA000DB001033E11800EB800004EBC0000123E0
:101BB0004374E0E70220EEE710B501F0070C0CEBF0
:101BC0008C01C90001F5A8710CEB8C0E00EBCE0E58
:101BD000CEF86421CEF868310024CEF86C418EF83E
:101BE00051418EF850C10144006800F07CFC204651
:101BF00010BD01F0070101EB810100EBC100D0F83D
:101C00006C01704738B501F0070C0CEB8C01C90072
:101C100010310CEB8C0E00EBCE0ECEF824200CF124
:101C2000010202EB820440F8343001258EF8345072
:101C3000CEF8303000EBC402002454608EF811500E
:101C40008EF810C00144006800F04DFC204638BDFD
:101C500038B501F007050279AA4235D304460B4690
:101C600011F0800F1ED101EB8101C90001F5A871AF
:101C7000014403EB830300EBC303002283F85121EB
:101C800001238B700D7094F89032012B1ED001232C
:101C900084F89032206800F08DFB7DB1002084F83C
:101CA000900238BD05EB8501C9001031014405EBF8
:101CB000850300EBC30301225A74E1E704F52671A2
:101CC000206800F0FBFBE9E70120EAE70220E8E7F3
:101CD0000B46017903F00F02914234D310B504464C
:101CE00013F0800F21D103F0070202EB8201C9003B
:101CF00001F5A871014402EB820200EBC202002050
:101D000082F8510100228A7003F007030B7094F8E7
:101D10009032012B19D0012384F89032206800F012
:101D20006EFB002084F8900210BD03F0070202EB66
:101D30008201C9001031014402EB820200EBC202B1
:101D400001205074DEE7012070470220ECE711F01B
:101D5000800F0BD001F0070101EB8101C9001031A8
:101D6000084452B90273C3800020704701EB81011F
:101D7000C90001F5A8710844F3E701220273038149
:101D80001B0C4381F0E784B004A800E90E0000209A
:101D900004B0704703460020A3F844004FF43F42CC
:101DA000A3F840207047B0F840309BB223F47C5336
:101DB0005B045B0CA0F840300020704700207047A7
:101DC00084B0844604A800E90E000123ACF840303A
:101DD0000020ACF84000ACF84400ACF8500004B06F
:101DE000704700B5034691F800C030F82C2092B23D
:101DF00022F4EC4222F0700292B2C878022867D036
:101E000008D878B1012803D142F4806200200BE0A9
:101E1000012009E0032803D142F4C062002003E05E
:101E2000012001E042F4007248F2800E42EA0E0204
:101E300023F82C2091F800C033F82C2092B222F421
:101E4000E04222F0700242EA0C0242EA0E0223F85B
:101E50002C200A7B002A40F0DC804A78002A48D0F7
:101E6000B3F8502092B21A4491F800C002EB0C1261
:101E7000B1F806C04FEA5C0C4FEA4C0CA2F800C463
:101E800091F800C033F82C2012F0400F0CD033F83A
:101E90002C2092B222F4E04222F0700242F400427E
:101EA00042F0C00223F82C20CA78012A12D0097807
:101EB00033F8212092B222F4E04222F0400282F074
:101EC000200242F4004242F0800223F821201AE16D
:101ED0000020A9E7097833F8212092B222F4E042E9
:101EE00022F0400242F4004242F0800223F8212016
:101EF00009E1B3F8502092B21A4491F800C002EB05
:101F00000C12B1F806C04FEA5C0C4FEA4C0CA2F878
:101F100008C4B3F8502092B21A4491F800C002EB02
:101F20000C12B2F80CC4CCF3090CA2F80CC4D1F812
:101F300010C0BCF13E0F3AD94FEA5C1E1CF01F0FD7
:101F400001D10EF1FF3EB2F80CC41FFA8CFC4FEA2F
:101F50008E2E1FFA8EFE4CEA0E0C4CF4004CA2F8AA
:101F60000CC491F800C033F82C2012F4804F0CD030
:101F700033F82C2092B222F4E04222F0700242F4B4
:101F8000404242F0800223F82C20097889BB33F8C4
:101F9000212092B222F4804222F0700282F4405258
:101FA00042F4004242F0800223F82120ABE0BCF171
:101FB000000F0AD1B2F80CC46FEA4C4C6FEA5C4CCB
:101FC0001FFA8CFCA2F80CC4CBE74FEA5C0E1CF0A5
:101FD000010F01D00EF1010EB2F80CC41FFA8CFCF7
:101FE0004FEA8E2E1FFA8EFE4CEA0E0CA2F80CC49D
:101FF000B7E733F8212092B222F4804222F0700237
:1020000082F4005242F4004242F0800223F8212080
:1020100079E0CA78022A77D091F800C033F82C20F2
:1020200092B222F4E24222F0700242F4004242F004
:10203000800223F82C20B3F8502092B21A4491F871
:1020400000C002EB0C12B1F808C04FEA5C0C4FEA7A
:102050004C0CA2F800C4B3F8502092B21A4491F884
:1020600000C002EB0C12B1F80AC04FEA5C0C4FEA58
:102070004C0CA2F808C44A78002A55D191F800C047
:1020800033F82C2012F4804F0CD033F82C2092B26D
:1020900022F4E04222F0700242F4404242F0800218
:1020A00023F82C2091F800C033F82C2012F0400FB8
:1020B0000CD033F82C2092B222F4E04222F07002CD
:1020C00042F4004242F0C00223F82C2091F800E0D4
:1020D00033F82E2092B222F4804222F0700282F471
:1020E000405248F2800C42EA0C0223F82E20097874
:1020F00033F8212092B222F4E04222F0400242EA78
:102100000C0223F8212000BD91F800C033F82C20E8
:1021100092B222F4E04222F0700242F4014242F014
:10212000800223F82C2086E791F800C033F82C2099
:1021300012F4804F0CD033F82C2092B222F4E042FB
:1021400022F0700242F4404242F0800223F82C2038
:1021500091F800C033F82C2012F0400F0CD033F867
:102160002C2092B222F4E04222F0700242F40042AB
:1021700042F0C00223F82C20CA78012A1FD091F81F
:1021800000C033F82C2092B222F4E04222F0400248
:1021900082F0200242F4004242F0800223F82C2018
:1021A000097833F8212092B222F4804222F07002A2
:1021B00042F4004242F0800223F82120A3E791F884
:1021C00000C033F82C2092B222F4E04222F0400208
:1021D00042F4004242F0800223F82C20E0E70B7B1F
:1021E000002B46D14B7813B30A7830F8223013F025
:1021F000400F0CD030F822309BB223F4E04323F0A0
:10220000700343F4004343F0C00320F822300A78FF
:1022100030F822309BB223F4E04323F0400343F430
:10222000004343F0800320F82230002070470A78F2
:1022300030F8223013F4804F0CD030F822309BB2AB
:1022400023F4E04323F0700343F4404343F080035E
:1022500020F822300A7830F822309BB223F48043F1
:1022600023F0700343F4004343F0800320F822304E
:10227000DBE74B78002B4ED10A7830F8223013F48C
:10228000804F0CD030F822309BB223F4E04323F08F
:10229000700343F4404343F0800320F822300A786F
:1022A00030F8223013F0400F0CD030F822309BB2BF
:1022B00023F4E04323F0700343F4004343F0C003EE
:1022C00020F822300A7830F822309BB223F4E04321
:1022D00023F0700343F4004343F0C00320F822309E
:1022E0000A7830F822309BB223F4804323F0700345
:1022F00048F2800C43EA0C0320F822300A7830F8C8
:1023000022309BB223F4E04323F0400343EA0C0362
:1023100020F8223089E70A7830F8223013F4804F11
:102320000CD030F822309BB223F4E04323F070034A
:1023300043F4404343F0800320F822300A7830F819
:10234000223013F0400F0CD030F822309BB223F42F
:10235000E04323F0700343F4004343F0C00320F84C
:1023600022300A7830F822309BB223F4E04323F085
:10237000700343F4404343F0800320F822300A788E
:1023800030F822309BB223F4E04323F0400348F2BC
:10239000800C43EA0C0320F822300A7830F822300F
:1023A0009BB223F4804323F0700343EA0C0320F82C
:1023B00022303AE74B788BB10A7830F822309BB262
:1023C00023F4E04323F0400383F0100343F400437D
:1023D00043F0800320F82230002070470A7830F85C
:1023E00022309BB223F4804323F0700383F48053A4
:1023F00043F4004343F0800320F82230ECE70B7BEA
:10240000002B4BD14B7833B30A7830F8223013F0DD
:10241000400F0CD030F822309BB223F4E04323F07D
:10242000700343F4004343F0C00320F82230CB781C
:10243000012B33D00A7830F822309BB223F4E043EA
:1024400023F0400383F0200343F4004343F0800370
:1024500020F8223022E00A7830F8223013F4804F3E
:102460000CD030F822309BB223F4E04323F0700309
:1024700043F4404343F0800320F822300A7830F8D8
:1024800022309BB223F4804323F0700383F4405343
:1024900043F4004343F0800320F8223000207047CB
:1024A00011B98023A0F84C300020704700207047FD
:1024B00000207047B0F8440080B270470020704799
:1024C00001335B0800EB420000F5806008E00A7809
:1024D00091F801C042EA0C2220F8042B0231013BA2
:1024E000002BF4D1704770B505460C464A78012A96
:1024F0003BD00B7B002B40F0A7828B690A6993428B
:1025000040F285829B1A8B61B5F850309BB22B4408
:10251000217803EB0113B3F80C14C1F30901A3F8FC
:102520000C143E2A40F27782510912F01F0F00D19D
:102530000139B3F80C2492B2890289B20A4342F4F9
:102540000042A3F80C24227835F822309BB223F401
:10255000804323F0700383F4405343F4004343F07B
:10256000800325F82230002070BD8B691E46096962
:102570008B4200D90E46237B73B3E378022B4DD0F8
:10258000236A9B1B2362217835F8213013F0400F1A
:1025900000F0F581002A40F0E281B5F850309BB29E
:1025A0002B4403EB0113B3F80C24C2F30902A3F884
:1025B0000C243E2E40F2BA81710916F01F0F00D193
:1025C0000139B3F80C2492B2890289B20A4342F469
:1025D0000042A3F80C24CBE1B6B23346E28861692D
:1025E0002846FFF76DFFB5F850309BB22B44227898
:1025F00003EB0213A3F80464227835F822309BB26F
:1026000023F4E04323F0400383F0300343F400431A
:1026100043F0800325F822300020A5E7236A994281
:1026200080F06681227835F822309BB223F4E043B3
:1026300023F0700343F4014343F0800325F8223074
:10264000236A9B1B2362227835F8223013F0400F57
:1026500000F0A7806378B3BBB5F850309BB22B4431
:1026600003EB0213B3F80C24C2F30902A3F80C2401
:102670003E2E0FD9710916F01F0F00D10139B3F8A2
:102680000C2492B2890289B20A4342F40042A3F8B0
:102690000C241AE04EB9B3F80C246FEA42426FEAF8
:1026A000524292B2A3F80C240FE0720816F0010F08
:1026B00000D00132B3F80C1489B2920292B20A43EC
:1026C000A3F80C2401E0012B30D0B3B26289616918
:1026D0002846FFF7F5FE636933446361236A226984
:1026E00093422DD99B1B23626378002B45D1B5F80B
:1026F00050309BB22B44227803EB0213B3F804242E
:10270000C2F30902A3F804243E2E1DD9710916F064
:102710001F0F00D10139B3F8042492B2890289B2A3
:102720000A4342F40042A3F8042428E0B5F85030EC
:102730009BB22B4403EB0213B2B2A3F80C24C4E700
:10274000002222621E46CFE74EB9B3F804246FEA96
:1027500042426FEA524292B2A3F804240FE0720898
:1027600016F0010F00D00132B3F8041489B29202BE
:1027700092B20A43A3F8042401E0012B06D0B3B2BD
:10278000228961692846FFF79BFE35E7B5F850308E
:102790009BB22B44227803EB0213B2B2A3F80424B9
:1027A000EDE76378B3BBB5F850309BB22B4403EB35
:1027B0000213B3F80424C2F30902A3F804243E2E42
:1027C0000FD9710916F01F0F00D10139B3F8042495
:1027D00092B2890289B20A4342F40042A3F8042467
:1027E0001AE04EB9B3F804246FEA42426FEA52424B
:1027F00092B2A3F804240FE0720816F0010F00D083
:102800000132B3F8041489B2920292B20A43A3F8D7
:10281000042401E0012B30D0B3B22289616928463B
:10282000FFF74EFE636933446361236A2269934272
:102830002DD99B1B23626378002B45D1B5F850300E
:102840009BB22B44227803EB0213B3F80C24C2F39F
:102850000902A3F80C243E2E1DD9710916F01F0F92
:1028600000D10139B3F80C2492B2890289B20A432B
:1028700042F40042A3F80C2428E0B5F850309BB293
:102880002B4403EB0213B2B2A3F80424C4E70022E2
:1028900022621E46CFE74EB9B3F80C246FEA4242DB
:1028A0006FEA524292B2A3F80C240FE0720816F0BD
:1028B000010F00D00132B3F80C1489B2920292B227
:1028C0000A43A3F80C2401E0012B06D0B3B26289BD
:1028D00061692846FFF7F4FD8EE6B5F850309BB2EB
:1028E0002B44227803EB0213B2B2A3F80C24EDE7D9
:1028F000217835F8212092B222F4E24222F07002CF
:1029000042F4004242F0800225F82120B5F8502020
:1029100092B22A44217802EB01129BB2A2F804344D
:10292000228961692846FFF7CBFD65E64EB9B3F809
:102930000C246FEA42426FEA524292B2A3F80C248E
:1029400016E0720816F0010F00D00132B3F80C1433
:1029500089B2920292B20A43A3F80C2408E0B5F8B7
:1029600050309BB22B4403EB0113B2B2A3F80C24FA
:10297000B3B2628961692846FFF7A2FD3CE6B2BBAB
:10298000B5F850309BB22B4403EB0113B3F8042489
:10299000C2F30902A3F804243E2E0FD9710916F0E0
:1029A0001F0F00D10139B3F8042492B2890289B211
:1029B0000A4342F40042A3F8042421E04EB9B3F8DC
:1029C00004246FEA42426FEA524292B2A3F804240E
:1029D00016E0720816F0010F00D00132B3F80414AB
:1029E00089B2920292B20A43A3F8042408E0B5F82F
:1029F00050309BB22B4403EB0113B2B2A3F8042472
:102A0000B3B2228961692846FFF75AFDF4E5002236
:102A10008A611A4678E54AB9B3F80C246FEA424253
:102A20006FEA524292B2A3F80C248CE5510812F0DE
:102A3000010F00D00131B3F80C2492B2890289B29F
:102A40000A43A3F80C247EE5CB78022B4DD0012B52
:102A500040F0338189692369994240F2EA80C91ABA
:102A6000A161F2B9B5F8502092B22A44217802EB64
:102A70000112B2F80414C1F30901A2F804143E2BA8
:102A800040F2DB80580913F01F0F00D10138B2F873
:102A9000041489B2800280B2014341F40041A2F8DB
:102AA00004146278002A40F0FA80B5F8502092B2FF
:102AB0002A44217802EB0112B2F80C14C1F3090187
:102AC000A2F80C143E2B40F2D180590913F01F0FCD
:102AD00000D10139B2F80C349BB2890289B20B43A0
:102AE00043F40043A2F80C342DE5F2B9B0F85030AD
:102AF0009BB203440A7803EB0213B3F80424C2F335
:102B00000902A3F804240A693E2A31D9510912F0B6
:102B10001F0F00D10139B3F8042492B2890289B29F
:102B20000A4342F40042A3F804246378002B51D1F5
:102B3000B5F850309BB22B44227803EB0213B3F864
:102B40000C24C2F30902A3F80C2422693E2A28D9D6
:102B5000510912F01F0F00D10139B3F80C2492B2C1
:102B6000890289B20A4342F40042A3F80C2433E0FC
:102B70004AB9B3F804246FEA42426FEA524292B271
:102B8000A3F80424D1E7510812F0010F00D001315D
:102B9000B3F8042490B28A0292B20243A3F8042448
:102BA000C3E74AB9B3F80C246FEA42426FEA5242D3
:102BB00092B2A3F80C240FE0510812F0010F00D0DC
:102BC0000131B3F80C2490B28A0292B20243A3F806
:102BD0000C2401E0012B1CD0E369002B3FF4B3ACC3
:102BE000227835F8223099B213F4804F1CD011F0BE
:102BF000400F3FF4A8AC35F822309BB223F4E043F9
:102C000023F0700343F4004343F0C00325F822305F
:102C100099E4B5F850309BB22B44227803EB0213B1
:102C2000228AA3F80C24D7E711F0400F7FF48BAC75
:102C3000E1E70023A3610B4613E74BB9B2F8041494
:102C40006FEA41416FEA514189B2A2F8041428E7C2
:102C5000590813F0010F00D00131B2F8040480B21A
:102C6000890289B20143A2F804141AE74BB9B2F8F9
:102C70000C346FEA43436FEA53439BB2A2F80C341F
:102C800061E4590813F0010F00D00131B2F80C349F
:102C900098B28B029BB20343A2F80C3453E4012A8E
:102CA0007FF451ACB5F8502092B22A44217802EB5F
:102CB00001129BB2A2F80C3445E4012054E49C4676
:102CC0005B0800EB420000F5806007E030F8042B61
:102CD0000A70C2F307224A700231013B002BF5D182
:102CE0001CF0010F01D003880B70704708B5074A2C
:102CF000136843F010031360032000F02DFD0F2034
:102D0000FDF76EFCFDF714FC002008BD002002401A
:102D1000034A1168034B1B780B441360704700BFD4
:102D2000501E002060040020014B1868704700BF4F
:102D3000501E002038B50446FFF7F6FF0546B4F1F3
:102D4000FF3F02D0044B1B781C44FFF7EDFF401BF4
:102D5000A042FAD338BD00BF6004002082B0084B07
:102D60001B68084AA2FB03235B0A00FB03F30193E1
:102D700000BF019B5A1E0192002BF9D102B070478F
:102D800068040020D34D6210002800F0F38170B574
:102D900082B00446036813F0010F2CD09A4B5B6895
:102DA00003F00C03042B1DD0974B5B6803F00C035E
:102DB000082B12D06368B3F5803F41D0002B55D16A
:102DC00003F1804303F504331A6822F480321A6059
:102DD0001A6822F480221A6037E08B4B5B6813F488
:102DE000803FE7D0884B1B6813F4003F03D0636833
:102DF000002B00F0C181236813F0020F75D0824BC5
:102E00005B6813F00C0F5FD07F4B5B6803F00C0323
:102E1000082B54D02369002B00F08A807B4B0122C1
:102E20001A60FFF781FF0546774B1B6813F0020F0E
:102E300075D1FFF779FF401B0228F5D90320A0E1E7
:102E4000714A136843F480331360636843B3FFF738
:102E50006BFF05466C4B1B6813F4003FCBD1FFF7AB
:102E600063FF401B6428F5D903208AE1B3F5A02F46
:102E700009D0654B1A6822F480321A601A6822F46D
:102E800080221A60E1E703F18043A3F53C331A681E
:102E900042F480221A601A6842F480321A60D4E741
:102EA000FFF742FF0546584B1B6813F4003FA2D0C2
:102EB000FFF73AFF401B6428F5D9032061E1524B2C
:102EC0005B6813F4803FA5D14F4B1B6813F0020FD2
:102ED00003D02369012B40F051814B4A136823F042
:102EE000F803616943EAC1031360236813F0080F14
:102EF00033D0A369002B5DD0444B0122C3F880245A
:102F0000FFF712FF0546404B5B6A13F0020F21D119
:102F1000FFF70AFF401B0228F5D9032031E13A4AA6
:102F2000136823F0F803616943EAC1031360DCE727
:102F3000364B00221A60FFF7F7FE0546324B1B683E
:102F400013F0020FD1D0FFF7EFFE401B0228F5D996
:102F5000032016E10120FFF701FF236813F0040F9F
:102F600000F09880284BDB6913F0805F35D1264B49
:102F7000DA6942F08052DA61DB6903F08053019331
:102F8000019B01231E46224B1B6813F4807F27D030
:102F9000E368012B3ED0002B54D103F1804303F5AD
:102FA00004331A6A22F001021A621A6A22F0040239
:102FB0001A6234E0154B0022C3F88024FFF7B4FEF8
:102FC0000546114B5B6A13F0020FC6D0FFF7ACFE4B
:102FD000401B0228F5D90320D3E000231E46D2E788
:102FE0000B4A136843F480731360FFF79DFE054698
:102FF000074B1B6813F4807FCAD1FFF795FE401B77
:103000006428F5D90320BCE00010024000004242D1
:10301000007000405F4A136A43F001031362E368E3
:1030200033B3FFF781FE05465A4B1B6A13F0020FBC
:103030002FD1FFF779FE401B41F288339842F3D934
:1030400003209EE0052B09D0524B1A6A22F00102A0
:103050001A621A6A22F004021A62E0E74D4B1A6AF9
:1030600042F004021A621A6A42F001021A62D6E7BA
:10307000FFF75AFE0546474B1B6A13F0020F08D0B4
:10308000FFF752FE401B41F288339842F3D90320E8
:1030900077E0E6B9E369002B72D03E4A526802F04D
:1030A0000C02082A56D0022B17D03B4B00221A667E
:1030B000FFF73AFE0446374B1B6813F0007F47D0FA
:1030C000FFF732FE001B0228F5D9032059E0314AF0
:1030D000D36923F08053D361DCE72F4B00221A66BB
:1030E000FFF722FE05462B4B1B6813F0007F06D02E
:1030F000FFF71AFE401B0228F5D9032041E0236A9E
:10310000B3F5803F1AD023494B6823F47413226A25
:10311000606A024313434B601F4B01221A66FFF79C
:1031200003FE04461B4B1B6813F0007F0ED1FFF714
:10313000FBFD001B0228F5D9032022E0154A536845
:1031400023F40033A1680B435360DCE7002018E050
:10315000002016E0012B16D00E4B5B6803F4803183
:10316000226A914211D103F47013626A93420ED124
:10317000002006E001207047012002E0012000E06D
:10318000184602B070BD0120FBE70120F9E70120DD
:10319000F7E700BF00100240000042420F4B5B689F
:1031A00003F00C02082A01D00D487047C3F3834294
:1031B0000C49885C13F4803F0BD0084B5B68C3F369
:1031C0004043094AD35C064A02FB00F0B0FBF3F02F
:1031D0007047064B03FB00F0704700BF0010024031
:1031E00000127A00B0560008AC56000800093D00F5
:1031F000002800F0A08070B50D460446524B1B68B5
:1032000003F007038B420BD24F4A136823F00703E6
:103210000B431360136803F007038B4240F08D806B
:10322000236813F0020F17D013F0040F04D0474A9D
:10323000536843F4E0635360236813F0080F04D02D
:10324000424A536843F460535360404A536823F042
:10325000F003A1680B435360236813F0010F31D0D2
:103260006368012B20D0022B25D0384A126812F057
:10327000020F64D035494A6822F0030213434B60C1
:10328000FFF752FD0646314B5B6803F00C036268A2
:10329000B3EB820F16D0FFF747FD801B41F2883356
:1032A0009842F0D9032045E0284A126812F4003F02
:1032B000E0D101203EE0254A126812F0007FD9D10A
:1032C000012037E0204B1B6803F00703AB420AD90B
:1032D0001D4A136823F007032B431360136803F0A0
:1032E0000703AB422DD1236813F0040F06D0174A11
:1032F000536823F4E063E1680B435360236813F0E1
:10330000080F07D0114A536823F46053216943EA38
:10331000C1035360FFF742FF0C4B5B68C3F3031319
:103320000B4AD35CD8400B4B18600B4B1868FDF769
:1033300057F9002070BD012070470120FAE70120F5
:10334000F8E70120F6E700BF00200240001002402D
:10335000C85600086804002064040020014B186867
:10336000704700BF6804002008B5FFF7F7FF044B63
:103370005B68C3F3C223034AD35CD84008BD00BFD7
:1033800000100240C05600080F2303600B4B5A6820
:1033900002F0030242605A6802F0F00282605A684A
:1033A00002F4E062C2605B68DB0803F4E06303617F
:1033B000034B1B6803F007030B60704700100240CB
:1033C0000020024070B582B00446036813F0010F7C
:1033D00039D0414BDB6913F0805F4DD13E4BDA6948
:1033E00042F08052DA61DB6903F080530193019B64
:1033F00001231E46394B1B6813F4807F3FD0364BA8
:103400001B6A13F4407315D0626802F440729A424A
:1034100010D0314A136A23F4407031494FF0010C47
:10342000C1F840C44FF0000CC1F840C4106213F062
:10343000010F38D1284A136A23F4407361680B43A3
:103440001362002E40D1236813F0020F06D0224AE7
:10345000536823F44043A1680B435360236813F07F
:10346000100F36D01C4A536823F48003E1680B43E5
:103470005360002002B070BD00231E46BAE7174A11
:10348000136843F480731360FFF74EFC0546134B3B
:103490001B6813F4807FB2D1FFF746FC401B642801
:1034A000F5D90320E6E7FFF73FFC05460A4B1B6A08
:1034B00013F0020FBED1FFF737FC401B41F28833F7
:1034C0009842F3D90320D5E7D36923F08053D36121
:1034D000B9E70020CEE700BF0010024000700040B6
:1034E0000000424270B582B04FF0000EF446A4E0F6
:1034F000012B28D0022B03D1CB6803F1080E24E066
:103500001BBB8B68002B65D0012B5CD042614FF058
:10351000080E1AE0664DAB42F3D00CD8A5F5801525
:10352000AB42EED005F57025AB42EAD0A5F580158B
:10353000AB42E6D009E05F4DAB42E2D005F5803505
:10354000AB42DED001E0D1F80CE0FF2C45D80646B6
:103550004FEA8C0233680F25954023EA05030EFAE3
:1035600002F2134333604B6813F0805F63D0524B19
:103570009A6942F001029A619B6903F00103019389
:10358000019B4FEA9C02951C4C4B53F825600CF0B4
:103590000305AD000F23AB4026EA0306484B9842D3
:1035A00022D003F58063984263D003F5806398428C
:1035B00061D003F58063984214D0042315E0CB68F2
:1035C00003F10C0EC1E702614FF0080EBDE74FF0AA
:1035D000000EBAE74FF0040EB7E7061DACF1080283
:1035E0009200B7E7032300E00023AB4033430232ED
:1035F000324D45F822304B6813F4801F3DD0314ADC
:103600009368234393604B6813F4001F3BD02D4A0B
:10361000D3682343D3604B6813F4003F39D0294A61
:103620005368234353604B6813F4803F37D0254AD7
:103630001368234313600CF1010C0B6833FA0CF28E
:1036400033D0012202FA0CF203EA020432EA030345
:10365000F1D14B68032BBAD07FF64AAF122BAED014
:103660003FF658AF112B7FF470AFCB6803F1040E17
:103670006BE70123B9E70223B7E7124A936823EA0D
:1036800004039360BFE70F4AD36823EA0403D360BF
:10369000C1E70C4A536823EA04035360C3E7094AAD
:1036A000136823EA04031360C5E702B070BD00BFCE
:1036B0000000221000003110001002400000014004
:1036C00000080140000401400AB10161704709048B
:1036D00001617047C36801EA030221EA030141EA7C
:1036E0000241016170470000002808DB0901C9B2EE
:1036F00000F1604000F5614080F80013704700F071
:103700000F000901C9B2014B1954704714ED00E0D4
:1037100000B500F00700A0F1030CBCF1040F07D8BE
:10372000C0F1070E0430062806D84FF0000C03E065
:103730004FF0040E4FF0000C4FF0FF3303FA0EF081
:1037400021EA000101FA0CF103FA0CF322EA030268
:1037500041EA020000BD0000074AD36823F4E06399
:103760001B041B0C000200F4E060034343F0BF6342
:1037700043F40033D360704700ED00E010B5044619
:10378000054BD868C0F30220FFF7C2FF0146204670
:10379000FFF7AAFF10BD00BF00ED00E0002807DB27
:1037A00000F01F02400901239340024A42F82030F2
:1037B000704700BF00E100E02DE9F04383B004460C
:1037C0000F4616461D46FFF7AFFA0A9B1B1A03EB7E
:1037D0000508FFF7A9FA8146284B1B68C3F3CB33D2
:1037E00008FB03F3019323689B6837EA03030CBFCC
:1037F00001230023B3423DD0B5F1FF3FF3D0FFF7E3
:1038000093FA4B46C01A404507D2019A02B142468C
:10381000019B013B01939046E5E72268536823F042
:10382000E00353606368B3F5827F0BD0A36AB3F5FE
:10383000005F14D0012384F85130002384F8503005
:10384000032018E0A368B3F5004F02D0B3F5806FF2
:10385000ECD12268136823F040031360E6E7226886
:10386000136823F4005313602268136843F4005371
:103870001360DFE7002003B0BDE8F0836804002098
:1038800070B582B004460B460D46164600920122E2
:103890000221FFF791FF48B900962B46024680218E
:1038A0002046FFF789FF38B902B070BD636D43F061
:1038B000200363650320F7E7636D43F0200363652E
:1038C0000320F1E7002856D010B50446436A33B907
:1038D0004368B3F5827F05D00023C36102E0002373
:1038E000036143610023A36294F85130002B3CD064
:1038F000022384F851302268136823F040031360D8
:10390000636803F48273A26802F404421343E2681A
:1039100002F400621343226902F002021343626957
:1039200002F001021343A26902F400721343E26938
:1039300002F038021343226A02F080021343A26AA3
:1039400002F40052216813430B60638B226803F07A
:10395000040353602268D36923F40063D361002019
:103960006065012384F8513010BD84F85030204642
:10397000FCF706FEBCE7012070472DE9F04383B059
:103980000446894690461D46FFF7CEF994F851301B
:10399000012B40F0CD800646DFB24946002900F0F9
:1039A000C8804246002A00F0C48094F85030012BB1
:1039B00000F0C380012384F85030032384F8513091
:1039C00000236365C4F83090A4F83480A4F83680EE
:1039D000A363A387E38763642364A368B3F5004FFD
:1039E0001ED023681A6812F0400F03D11A6842F003
:1039F00040021A60E368B3F5006F1CD0636813B12E
:103A00004346012B5FD1226B236812781A73236B14
:103A100001332363E38E9BB2013B9BB2E38652E00A
:103A20002268136823F0400313602268136843F48C
:103A300080431360D5E7636813B14346012B15D16A
:103A4000226B23681288DA60236B02332363E38ED0
:103A50009BB2013B9BB2E38608E0FFF765F9801B50
:103A6000A84202D3B5F1FF3F15D1A5B1E38E9BB2B9
:103A7000002B42D023689A6812F0020FEDD0226B1F
:103A80001288DA60236B02332363E38E9BB2013B1F
:103A90009BB2E386EAE7012384F85130002384F8DF
:103AA0005030032745E0226B12781A73236B0133E1
:103AB0002363B4F836C01FFA8CFC0CF1FF3C1FFAEC
:103AC0008CFCA4F836C0E38E9BB2B3B123689A682D
:103AD00012F0020FE7D1FFF727F9801BA84202D3AB
:103AE000B5F1FF3F01D1002DEDD1012384F8513014
:103AF000002384F8503003271BE032462946204635
:103B0000FFF7BEFE08B120236365A36833B90193B4
:103B10002368DA6801929B680193019B012384F872
:103B20005130002384F85030636D13B91F4600E014
:103B30000227384603B0BDE8F0830227F9E7704753
:103B400000F1080343604FF0FF328260C3600361FD
:103B500000230360704700230361704743684B6094
:103B60009A688A6051609960086103680133036054
:103B7000704700B502460846D1F800C0BCF1FF3FCF
:103B800011D002F1080319465B68D3F800E0E6455E
:103B9000F9D94B684360986081604860026113689E
:103BA0000133136000BD1169F3E70369416882685E
:103BB0008A60416851605A68824206D000220261E0
:103BC0001A68013A1A601868704782685A60F5E707
:103BD000084B1B681B6823B9074B4FF0FF321A6074
:103BE0007047044B1B68DB68DB685A68024B1A603D
:103BF000704700BFC41E00205C1E00202DE9F84362
:103C000080469946089D0A9C236B02F18042013A46
:103C100003EB820323F007031F4699B308464FF0D6
:103C2000000CBCF10F0F09D810F80C2004EB0C03AA
:103C300083F8342012B10CF1010CF2E7002384F870
:103C40004330062D00D90625E56265640026A6648A
:103C5000201DFFF780FF04F11800FFF77CFF2461AF
:103C6000C5F10705A5616462E66484F850604A46C0
:103C70004146384600F004FD2060099B03B11C60FA
:103C8000BDE8F883002384F83430DAE738B500243F
:103C900007E004EB84000F4B03EB8000FFF750FFBD
:103CA0000134062CF5D90C4D2846FFF749FF0B4C83
:103CB0002046FFF745FF0A48FFF742FF0948FFF794
:103CC0003FFF0948FFF73CFF084B1D60084B1C6095
:103CD00038BD00BFF01E0020DC1E0020C81E0020E2
:103CE000AC1E0020981E0020801E0020C41E002054
:103CF000C01E002010B5044600F0ECFC214A1368F9
:103D000001331360204B1B685BB1204B1B686BB900
:103D10001D4B1B68DA6AE36A9A4207D81A4B1C608B
:103D200004E0194B1C601368012B28D0184A136853
:103D300001331360E06A01238340164A11680B4384
:103D4000136000EB8000211D134B03EB8000FFF795
:103D500005FF00F0E1FC0D4B1B687BB10A4B1B68B3
:103D6000DA6AE36A9A4209D24FF0E0234FF08052B8
:103D7000C3F8042DBFF34F8FBFF36F8F10BDFFF754
:103D800085FFD3E77C1E00207C1F0020701E0020D2
:103D9000601E0020741E0020F01E002010B5044696
:103DA00090F8513063B1012B11D0022B0ED04FF09F
:103DB000500383F31188BFF36F8FBFF34F8FFEE77C
:103DC000006B00F0EDFB204600F0EAFB10BD00F0B8
:103DD000E7FBFBE70F4B1B68D3B110B500F07AFC93
:103DE0000D4BDB68DC68201DFFF7DFFE0B4A136814
:103DF000013B1360074A1368013B136000F08CFC21
:103E00002046FFF7CBFF034B1B68002BE6D110BD0C
:103E1000704700BF941E0020981E00207C1E0020CA
:103E200008B5FFF7D7FF074B1B68012BF9D94FF0F7
:103E3000E0234FF08052C3F8042DBFF34F8FBFF340
:103E40006F8FEEE7F01E002070B504460E461D4B46
:103E50001D681D4B18680430FFF7A7FE48B91A4BC0
:103E60001B68DB6A01229A4018490B6823EA0203A7
:103E70000B60B4F1FF3F0DD02C44134B1B685C600A
:103E8000A54210D9124B18680F4B19680431FFF77F
:103E900070FE70BD002EEFD00B4B196804310D4839
:103EA000FFF75CFEF5E70C4B1868074B1968043107
:103EB000FFF75FFE094B1B68A342EAD9074B1C6062
:103EC000E7E700BF781E00207C1F0020741E002042
:103ED000C01E0020801E0020C41E00205C1E00208A
:103EE00000B587B08C46099979B10A99B1B15421CE
:103EF0000491049954291AD04FF0500383F3118888
:103F0000BFF36F8FBFF34F8FFEE74FF0500383F384
:103F10001188BFF36F8FBFF34F8FFEE74FF0500351
:103F200083F31188BFF36F8FBFF34F8FFEE7DDF888
:103F300010E00A99DDF824E0C1F830E00221DDF854
:103F400028E08EF8511000210391CDF808E005A972
:103F50000191089900916146FFF750FE0A98FFF71A
:103F6000C9FE059807B000BD2DE9F04184B0804638
:103F70000F4614461E46900000F090FA00B3054626
:103F8000542000F08BFAA8B10563002380F851306B
:103F90000393054602900B9B01930A9B00933346C3
:103FA000224639464046FFF729FE2846FFF7A2FE83
:103FB000012007E0284600F0F3FA4FF0FF3001E05F
:103FC0004FF0FF3004B0BDE8F081000010B588B0BC
:103FD00000240594069407AA06A905A8FCF7BCF9D5
:103FE000059B0293069B019300942346079A0E4972
:103FF0000E48FFF775FF0E4B186090B14FF050035D
:1040000083F31188BFF36F8FBFF34F8F094B4FF0CE
:10401000FF321A60084B01221A60084B1C6000F046
:10402000E3FB08B010BD00BFA4560008213E000805
:10403000581E00205C1E0020701E0020781E0020EC
:10404000024A136801331360704700BF541E0020FA
:10405000F8B53D4B1B68002B6ED13C4B1D680135FC
:104060001D60C5B93A4B1B681B6843B14FF0500344
:1040700083F31188BFF36F8FBFF34F8FFEE7344A8E
:104080001168344B186810601960334A13680133A3
:104090001360FFF79DFD314B1B68AB4241D90023F4
:1040A0001F462F4B1B68DB6A03EB83039B002D4AE3
:1040B000D358012B01D901231F462B4B1B68002B22
:1040C00040D001231F463DE001231F46204B1B68C3
:1040D0001B684BB31E4B1B68DB68DC6863689D4242
:1040E00027D3261D3046FFF760FDA36A1BB104F1FC
:1040F0001800FFF75AFDE06A012383401B4A11684C
:104100000B43136000EB80003146164B03EB80003D
:10411000FFF724FDE26A124B1B68DB6A9A42D3D296
:10412000D4E700231F46D1E70C4B4FF0FF321A6053
:10413000B7E70A4A1360B4E70D4A13680133136006
:1041400000231F463846F8BD541E0020781E00206C
:10415000C41E0020C01E0020641E00205C1E002023
:104160007C1F0020F01E0020681E0020741E00200E
:104170006C1E002038B5354B1B6843B94FF0500317
:1041800083F31188BFF36F8FBFF34F8FFEE700F00B
:10419000A1FA2E4B1A68013A1A601B68002B4FD106
:1041A0002B4B1B680BB91C464BE00024294B1B68AA
:1041B0001BB3284BDB68DC6804F11800FFF7F5FC43
:1041C000251D2846FFF7F1FCE06A01238340224ABF
:1041D00011680B43136000EB800029461F4B03EB73
:1041E0008000FFF7BBFCE26A1D4B1B68DB6A9A424A
:1041F000DCD31C4B01221A60D8E70CB1FFF7E8FCB6
:10420000194B1C6884B9174B1C68D4B14FF0E023DC
:104210004FF08052C3F8042DBFF34F8FBFF36F8F61
:1042200001240EE0013C07D0FFF712FF0028F9D06F
:104230000C4B01221A60F5E70B4B00221A60E2E7F3
:10424000002400F069FA204638BD00BF541E00204B
:104250007C1E0020AC1E0020741E0020F01E0020DA
:104260007C1F0020681E00206C1E002010B5A8B125
:104270000446104B1B6843B14FF0500383F3118881
:10428000BFF36F8FBFF34F8FFEE7FFF7D9FE00211B
:104290002046FFF7D9FDFFF76DFF48B94FF0E02347
:1042A0004FF08052C3F8042DBFF34F8FBFF36F8FD1
:1042B00010BD00BF541E0020204B1B681BB1204BBB
:1042C00001221A6070471E4B00221A601D4B1B68AA
:1042D000B3FA83F3DBB2C3F11F0303EB8302920053
:1042E00019498A5842B94FF0500383F31188BFF33C
:1042F0006F8FBFF34F8FFEE7134803EB830200EB92
:10430000820251684968516003EB830292000832CF
:104310000244914209D003EB83030B4A02EB83036F
:104320005B68DA68094B1A607047486803EB8301E1
:10433000054A02EB81025060EDE700BF541E0020E9
:10434000681E0020741E0020F01E00207C1F00202C
:10435000842801D0033070470020704708B5FFF76C
:1043600035FE002008BD2DE9F04387B00F464469B3
:10437000CCB10E468569B5B14768D0F80080D0F859
:104380001090B0F90800FFF7E3FF02950194009048
:1043900033464A4641463846FFF7A2FD0590059848
:1043A00007B0BDE8F083446805680669B0F9080005
:1043B000FFF7CEFF05AB019300903B46B2B2294612
:1043C0002046FFF7D1FD0128E9D00020E8E708B535
:1043D00000B90120FFF74AFF002008BD124A12F081
:1043E000070F1ED0D11D21F00701C1F54063134412
:1043F0000A460E480260002141601344083B23F046
:1044000007030B48036059601960991A51601360E3
:10441000084B1960084B1960084B4FF000421A60B6
:1044200070474FF44063E4E7A01F0020981F00206E
:10443000941F00208C1F0020901F0020801F002050
:10444000144B1A461B688342FBD3516802EB010CE4
:10445000844509D0416800EB010C634509D0036035
:10446000904200D01060704740680144516010468F
:10447000F0E7DFF824C0DCF800C0634506D05B68D5
:104480001944416013681B680360E9E7C0F800C085
:10449000E6E700BF981F0020941F002038B50446AF
:1044A000FFF7CEFD384B1B68B3B1384B1B681C427D
:1044B00050D1002C50D004F1080214F0070F02D0A4
:1044C00022F007020832002A55D0314B1B68934274
:1044D00053D330490C6804E0FFF780FFE5E721463D
:1044E0001C466368934202D22368002BF7D1264B07
:1044F0001B68A34243D00D68083523680B606368CE
:104500009B1A102B10D9A01810F0070F08D04FF0ED
:10451000500383F31188BFF36F8FBFF34F8FFEE714
:1045200043606260FFF78CFF626819490B689B1A51
:104530000B60194909688B4201D217490B60134B74
:104540001B681343636000232360144A136801331C
:10455000136002E0002500E02546FFF70BFE15F092
:10456000070F0ED04FF0500383F31188BFF36F8F06
:10457000BFF34F8FFEE71546EFE70025EDE7002577
:10458000EBE7284638BD00BF941F0020801F0020A5
:10459000901F0020981F00208C1F0020881F0020E3
:1045A000002835D038B50446A0F108031D4650F860
:1045B000043C184A1268134208D14FF0500383F3A9
:1045C0001188BFF36F8FBFF34F8FFEE750F8081CC1
:1045D00041B14FF0500383F31188BFF36F8FBFF3E6
:1045E0004F8FFEE723EA020340F8043CFFF728FD63
:1045F00054F8041C084A13680B4413602846FFF75C
:104600001FFF064A136801331360FFF7B3FD38BD7F
:10461000704700BF801F0020901F0020841F0020D3
:1046200082B0002301930D4B1B68B3F1FF3F08D00C
:104630004FF0500383F31188BFF36F8FBFF34F8F99
:10464000FEE74FF0500383F31188BFF36F8FBFF382
:104650004F8F019B002BFCD002B070476C040020F0
:1046600006480068006880F3088862B661B6BFF348
:104670004F8FBFF36F8F00DF00BF000008ED00E039
:104680004FF0807340F8043C21F0010140F8081C11
:10469000034B40F80C3C40F8202C4038704700BFDA
:1046A000214600080000000000000000000000009B
:1046B000074B19680868B0E8F00F80F30988BFF36A
:1046C0006F8F4FF0000080F311884EF00D0E704791
:1046D0007C1F00204FF0500383F31188BFF36F8FCE
:1046E000BFF34F8F0B4A136801331360012B00D0C7
:1046F00070474FF0E023D3F8043D13F0FF0FF7D0DD
:104700004FF0500383F31188BFF36F8FBFF34F8FC8
:10471000FEE700BF6C040020094B1B6843B94FF053
:10472000500383F31188BFF36F8FBFF34F8FFEE702
:10473000013B034A13600BB983F31188704700BF34
:104740006C040020000000000000000000000000D9
:10475000EFF30980BFF36F8F0D4B1A6820E9F00F5C
:10476000106008B54FF0500080F31188FFF7A4FDEA
:104770004FF0000080F31188BDE808401968086810
:10478000B0E8F00F80F30988BFF36F8F704700BF68
:104790007C1F002008B54FF0500383F31188BFF34E
:1047A0006F8FBFF34F8FFFF753FC28B14FF0E0231B
:1047B0004FF08052C3F8042D002383F3118808BD05
:1047C0004FF0E022002313619361054B1B680549FC
:1047D000A1FB03139B09013B53610723136170473E
:1047E00068040020D34D621000B583B02A4B1A78BC
:1047F000D2B20192FF221A701B78DBB28DF803301F
:104800009DF8033003F05003244A1370244B072211
:104810001A6009E0224A1368013B13609DF80330D7
:104820005B00DBB28DF803309DF8033013F0800F8E
:10483000F0D11B4B1B68032B08D04FF0500383F3C0
:104840001188BFF36F8FBFF34F8FFEE71B02144A2F
:10485000136003F4E0631360019BDBB20E4A137034
:104860004FF0E023D3F8202D42F47002C3F8202D3E
:10487000D3F8202D42F07042C3F8202DFFF7A0FF9F
:10488000084B00221A60FFF7EBFEFFF715FDFFF75C
:10489000C7FE002003B000BD00E400E0A42B002010
:1048A000A02B00206C04002098B108B50346D0F876
:1048B000B40210B10020C3F8B40209B1C3F8B012B9
:1048C000012183F89C121A701846FCF733F8002077
:1048D00008BD0220704719B1C0F8B412002070471B
:1048E0000220704708B5FCF767F8002008BD08B53E
:1048F000D0F8B4322BB11B68984700B908BD02202C
:10490000FCE70220FAE708B5D0F8B4325B689847B4
:10491000002008BD38B5044600F52A75284600F089
:1049200035F90123C4F89432B4F8AE32C4F89832A1
:1049300094F8A81201F01F03012B08D0022B0BD012
:104940007BB92946204600F0E3FA002038BD29460D
:10495000204600F016FBF8E72946204600F041FB10
:10496000F3E701F080012046FCF741F8EDE738B5A8
:1049700004460D4691BB1346D0F89422032A03D077
:10498000052A24D0084633E0D0F86011D0F864211D
:1049900091420DD9891AC0F860118A4206D98AB2AB
:1049A0001946204600F056FC284621E092B2F7E76F
:1049B000D0F8B4321B691BB190F89C22032A04D0B2
:1049C000204600F04FFC284612E09847F8E7002107
:1049D000C0F89412FCF70BF8284609E0D0F8B4327E
:1049E0009B6933B190F89C22032A04D19847002098
:1049F00038BD0220FCE70220FAE738B504460D4630
:104A0000002953D11346D0F89422022A0CD0042A4C
:104A100000D01AB980212046FBF7E9FF94F8A032B4
:104A2000012B3ED0284638BD026A416A8A421BD813
:104A3000C269B2FBF1F301FB13232BB9914203D8F6
:104A4000D0F898329A421CD3D4F8B432DB681BB148
:104A500094F89C22032A21D080212046FBF7C7FF2F
:104A6000204600F00AFCD9E7521A026292B21946B7
:104A700000F0D9FB00231A4619462046FBF7EDFF4C
:104A8000CCE70022114600F0CEFB0021C4F89812BA
:104A90000B460A462046FBF7E0FFBFE72046984753
:104AA000DAE7002384F8A0322846BCE7D0F8B43215
:104AB0005B6933B190F89C22032A04D19847002007
:104AC000B1E70220AFE70220ADE770B5044640230E
:104AD00000221146FBF778FF0125C4F85851402603
:104AE000C4F864613346002280212046FBF76CFF46
:104AF000A561666284F89C520023C4F89432636016
:104B0000C4F8A432D4F8B8322BB1D4F8B4325B680C
:104B1000002120469847002070BD01740020704796
:104B200090F89C3280F89D32042380F89C3200205B
:104B3000704790F89C32042B01D00020704790F809
:104B40009D3280F89C32F8E708B590F89C32032B30
:104B500001D0002008BDD0F8B432DB69002BF8D0BA
:104B60009847F6E70346002002E00130C0B2013367
:104B70001A78002AF9D1704708B54B88012B00D06C
:104B800008BDC0F8A43200F06DFBF9E70B780370A4
:104B90004B7843708B78CA7803EB022343800B7900
:104BA0004A7903EB022383808B79CA7903EB0223D2
:104BB000C380704710B504468021FBF718FF002121
:104BC0002046FBF714FF10BD30B583B005460C46F8
:104BD0000023ADF806304A88130A032B3FD012D9C0
:104BE000062B00F09880072B40F0A480037C002B5C
:104BF00040F09D80D0F8B4321B6B0DF10600984751
:104C00000723437016E0012B0DD0022B40F0928059
:104C1000037CDBB9D0F8B4329B6A0DF106009847EB
:104C20000223437006E0D0F8B0321B680DF1060194
:104C3000007C9847BDF8062012B1E388002B7ED196
:104C4000E388002B00F0858003B030BDD0F8B4328B
:104C5000DB6A0DF10600984702234370EAE7D2B2FF
:104C6000032A38D00ED8012A1DD0022A27D0002AC4
:104C70004CD1D0F8B0325B6893B10DF10601007CE5
:104C80009847D7E7042A32D0052A3FD1D0F8B0326E
:104C90009B69002B37D00DF10601007C9847C9E7CE
:104CA000FFF788FFD0E7D0F8B0329B6823B10DF151
:104CB0000601007C9847BDE7FFF77CFFC4E7D0F80A
:104CC000B032DB6823B10DF10601007C9847B1E7F3
:104CD000FFF770FFB8E7D0F8B0321B6923B10DF1D0
:104CE0000601007C9847A5E7FFF764FFACE7D0F822
:104CF000B0325B6923B10DF10601007C984799E75A
:104D0000FFF758FFA0E7FFF755FF9DE7214628462C
:104D1000FFF750FF98E7037C33B9D0F8B4325B6BF0
:104D20000DF10600984785E7FFF744FF8CE7FFF792
:104D300041FF89E721462846FFF73CFF84E79A4276
:104D400028BF1A46ADF806200146284600F05EFA54
:104D500076E7284600F086FA76E738B504468B8871
:104D600003BBCB88F3B94B887F2B1BD803F07F03A1
:104D70001A4690F89C32032B0DD0154684F89E22DB
:104D80001146FBF75AFE204600F06CFA35B10223BB
:104D900084F89C3209E0FFF70DFF06E0012384F858
:104DA0009C3202E02046FFF705FF38BD38B50446C7
:104DB00008460D464B88D9B22D4A117001290FD8EB
:104DC00094F89C22022A10D0032A26D001462046BD
:104DD000FFF7F0FE264B19782046FFF794FD03E01D
:104DE00001462046FFF7E6FE38BD91B1DBB26360B5
:104DF000032384F89C322046FFF779FD022803D074
:104E0000204600F02FFAEFE729462046FFF7D2FEB2
:104E1000EAE7204600F026FAE6E799B1DBB26168DE
:104E20008B4220D0C9B22046FFF76DFD104B197898
:104E300061602046FFF75BFD02280FD0204600F09E
:104E400011FAD1E7022284F89C22DBB2636020468B
:104E5000FFF759FD204600F005FAC5E72946204630
:104E6000FFF7A8FEC0E7204600F0FCF9BCE700BF52
:104E7000A52B002008B5CB88012B0AD190F89C32D5
:104E8000022B09D9032B11D10122011D00F0BEF91B
:104E900001E0FFF78FFE08BD5BB23BB10146002386
:104EA00041F8083F012200F0B1F9F4E7FFF782FE74
:104EB000F1E708B590F89C32013B022B12D8CB8861
:104EC000022B0CD10123C360D0F8A4320BB1032311
:104ED000C360022200F10C0100F098F908BDFFF751
:104EE00069FEFBE7FFF766FEF8E708B590F89C322D
:104EF000013B022B09D84B88012B00D008BD0023B1
:104F0000C0F8A43200F0AEF9F8E7FFF753FEF5E77A
:104F100008B50B7803F06003202B05D0402B03D09D
:104F200043B1FFF747FE03E0D0F8B4329B689847DF
:104F3000002008BD4B78052B11D007D8012B1AD0C3
:104F4000032B15D0D3B9FFF7B4FFF1E7082B0CD032
:104F5000092B07D0062B11D1FFF736FEE8E7FFF744
:104F6000FCFEE5E7FFF722FFE2E7FFF783FFDFE75D
:104F7000FFF702FEDCE7FFF7B8FFD9E7FFF71AFEFD
:104F8000D6E738B505460C460B7803F06003202BB6
:104F900006D0402B04D01BB1FFF70CFE002038BD1B
:104FA00095F89C32013B022B16D82379012B0ED8A1
:104FB000D5F8B4329B68214628469847E388002BF1
:104FC000ECD10028EAD1284600F04CF9E6E721466A
:104FD0002846FFF7EFFDE1E721462846FFF7EAFD07
:104FE000DCE770B505468B880C7804F06004202C53
:104FF00007D0DAB2402C04D05CB1FFF7DBFD00240F
:1050000005E0D5F8B4329B6828469847002420462E
:1050100070BD202C0BD048780646012837D00328D5
:105020000BD000285CD02846FFF7C4FDEFE7D0F88E
:10503000B4329B6898470446E9E795F89C32022B06
:1050400005D0032B13D02846FFF7B4FDDFE70AB1E4
:10505000802A03D12846FFF7ADFDD8E71146284640
:10506000FBF7C5FC80212846FBF7C1FCCFE74B8846
:1050700023B91AB1802A01D0CB881BB1284600F091
:10508000F1F8C4E711462846FBF7B1FCF6E795F8BE
:105090009C02022805D0032813D02846FFF78AFD7A
:1050A000B5E70AB1802A03D12846FFF783FDAEE7B2
:1050B00011462846FBF79BFC80212846FBF797FC0E
:1050C000A5E749880029A2D113F07F0F03D1284614
:1050D00000F0C8F89BE711462846FBF790FCF6E77E
:1050E00095F89C02022806D0032829D02846FFF70D
:1050F00061FD34468BE70AB1802A13D113F0800F8B
:1051000015D103F07F0303EB8303990001F5A87128
:105110002944043100230B600222284600F076F86F
:10512000344674E72846FFF745FD34466FE703F041
:105130007F0303EB83039900103129440431E9E72D
:105140005CB2002C1FDB03F00F0000EB800005EBCE
:105150008000D0F8580120B3002C27DB03F07F0338
:1051600003EB83039C0004F5A8742C4404340AB1B7
:10517000802A24D10023236002222146284600F001
:1051800045F8344643E703F00F0000EB800005EBE1
:10519000800080690028DFD12846FFF70BFD3446E8
:1051A00035E72846FFF706FD344630E703F07F0376
:1051B00003EB83039C0010342C440434D7E71146DE
:1051C0002846FBF724FC10B101232360D4E72060BC
:1051D000D2E7D0B170B50D4616460446FFF7C2FCC3
:1051E000431C5B009BB233802B7003236B70022344
:1051F00007E001345A1CD2B2E8540233DBB200217A
:10520000A95420780028F4D170BD704708B5134622
:105210000222C0F89422C36103620A460021FBF710
:1052200014FC002008BD08B513460A460021FBF710
:105230000CFC002008BD08B513460322C0F89422D8
:10524000C0F85C31C0F860310A460021FBF705FC6C
:10525000002008BD08B513460A460021FBF7FDFBF8
:10526000002008BD08B50423C0F8943200231A4674
:105270001946FBF7EAFB002008BD08B50523C0F876
:10528000943200231A461946FBF7E7FB002008BDBD
:1052900010B5D0F8B842D0F8BC325BB194F8000237
:1052A000FF2807D09B6894F8012221469847FF23E6
:1052B00084F80032002010BD43230380004870476B
:1052C000B40400204323038000487047F804002002
:1052D0004323038000487047700400200A230380A2
:1052E000004870477405002038B50446D0F8B8521D
:1052F000FBF7BBFBC5F80C02D4F8B8324BB1D4F8BD
:10530000BC32DB6805F50371D5F80402984700202C
:1053100038BD0220FCE7D0F8B822D0F8C0C202B3F2
:1053200008B501EB810300EB8303DB6953B101EBAB
:10533000810E0CEBCE0CDCF820C0B3FBFCFE0CFBAA
:105340001E3323B10023C2F81432002008BD01EB44
:10535000810300EB83030022DA611346FBF775FB40
:10536000F3E70220704770B582B006460C46D0F8CD
:10537000B81200238DF80730ADF80430237813F00D
:10538000600526D0202D56D1E288D2B113F0800FCF
:105390000CD0D0F8BC329B680D4660789847E28804
:1053A00029463046FFF732FF002548E0637881F850
:1053B0000032A37981F80132E288FFF73CFF002533
:1053C0003DE0D0F8BC329B682146607898470025C4
:1053D00035E063780A2B11D00B2B1ED01D462BBB5A
:1053E00090F89C32032B04D02146FFF7E3FB022503
:1053F00025E0022201A9FFF709FF20E090F89C3286
:10540000032B04D02146FFF7D5FB022517E001222C
:105410000DF10701FFF7FAFE11E090F89C32032B23
:105420000DD02146FFF7C6FB022508E02146FFF715
:10543000C1FB022503E02146FFF7BCFB02252846FD
:1054400002B070BD38B504468121FBF7C8FA0025CB
:10545000E56201212046FBF7C2FAC4F86C518221B3
:105460002046FBF7BCFA2564D4F8B8324BB1D4F827
:10547000BC325B689847D4F8B802FBF701FBC4F86C
:10548000B852002038BD70B50446037CABBB4FF466
:10549000007302228121FBF797FA0125E5624FF4A0
:1054A0000073022229462046FBF78EFAC4F86C519D
:1054B0000823032282212046FBF786FA0123236476
:1054C0004FF40770FBF7D8FA0546C4F8B80268B382
:1054D000D4F8BC321B6898470023C5F81432C5F8CD
:1054E0001832267CCEB94FF40073D5F8042201217E
:1054F0002046FBF7B2FA304670BD402302228121DC
:10550000FBF762FA0125E562402302222946204684
:10551000FBF75AFAC4F86C51CAE74023D5F80422C5
:1055200001212046FBF799FA0026E4E70126E2E78D
:1055300019B1C0F8BC120020704702207047D0F8A3
:10554000B832C3F80812C3F8102200207047D0F810
:10555000B832C3F8041200207047D0F8B82292B1D4
:1055600008B5037C43B94FF40073D2F8042201213B
:10557000FBF773FA002008BD4023D2F80422012172
:10558000FBF76BFAF6E7022070470000FEF7D7FA48
:105590000B480C490C4A002302E0D458C450043391
:1055A000C4188C42F9D3094A094C002301E0136066
:1055B0000432A242FBD300F017F8FAF7A5FE7047B9
:1055C0000000002080050020E05600088005002033
:1055D000A82B0020FEE703460244934200D1704707
:1055E00003F8011BF9E7000070B500260C4C0D4BC9
:1055F0001D1BB6EBA50F09D1002600F019F80A4CC7
:105600000A4B1D1BB6EBA50F05D170BD54F8043B2A
:1056100098470136EDE754F8043B98470136F1E727
:10562000D8560008D8560008D8560008DC5600089E
:10563000F8B500BFF8BC08BC9E467047F8B500BF7F
:08564000F8BC08BC9E4670474F
:105648006456000811020008000000000000000075
:105658008000000000000000000000006465666132
:10566800756C745461736B004F42445F49495F65C0
:105678006D756C61746F72005375624469610000E6
:1056880043444320436F6E666967000043444320E8
:10569800496E7465726661636500000049444C4553
:1056A80000000000010200000203040506070809C3
:1056B8000A0B0C0D0E0F101000000000010203046D
:1056C80000000000000000000102030406070809AA
:0456D800390100088C
:0456DC0011010008B0
:1056E00000000000000000000000000000000000BA
:1056F00000000000000000000000000000000000AA
:105700000000000000000000008040202020200059
:105710000000808080800000000080808000000009
:105720008080808000000000808080808000008079
:1057300000000000800000000000000000000000E9
:105740000000000000000000000000000000000059
:105750000000000000000000000000000000000049
:105760000000000000000000000000000000000039
:105770000000000000000000000000000000000029
:105780000000000000000000000F1020202020007A
:10579000001F312020201F00001F20202011001F8B
:1057A000252424242700E0302F2020203FE0003F44
:1057B000180C06033F0000703000000000000000DD
:1057C00000000000000000000000000000000000D9
:1057D00000000000000000000000000000000000C9
:1057E00000000000000000000000000000000000B9
:1057F0000000000000000000008080808080000029
:10580000000000000000000000008080C0C0404098
:105810000000000000000000000000000000000088
:105820000000000000000000000000000000000078
:105830000000000000000000000000000000000068
:10584000000000000000000000000000C0C00000D8
:105850000000000000000000000000000000000048
:105860000000000000000000000000000000000038
:105870000000000000000080F01F000000FF00009A
:1058800000F88C04048CF800007E8B0404048C78EF
:105890000000FC88040404F80000F88C04048CF870
:1058A0000000F8AC242424380000000000041CE0B0
:1058B00080C038040404FCFC040400FC88040404D4
:1058C000F80000F88C04048CF8000000BF80000091
:1058D00000000000000000000000000000000000C8
:1058E00000000000000000000000000000000000B8
:1058F0000000000000000F01010101010101010F82
:105900000000010101010000000000010101000090
:1059100000000F0001010100000000010101010071
:10592000000000010101010100000000000000086A
:1059300007010000000001010000000F000101014B
:105940000000000001010101000000000101000051
:105950000000000000000000000000000000000047
:105960000000000000000000000000000000000037
:105970000000000000000000000000000000000027
:105980000000000000000000000000000000000017
:105990000000000000000000000060600000027CC9
:1059A000C000000000000000000000000000000037
:1059B00000000000000000000000000000000000E7
:1059C00000000000000000000000000000000000D7
:1059D00000000000000000000000000000000000C7
:1059E00000000000000000000000000000000000B7
:1059F00000000000000000000000000000000000A7
:105A00000000000000000000000000000000000096
:105A1000000000000000000000000C0C0000403EF0
:105A2000070000000000000000000000000000006F
:105A30000000000000000000000000000000000066
:105A40000000000000000000000000000000000056
:105A50000000000000000000000000000000000046
:105A60000000000000000000000000000000000036
:105A70000000000000000000000000000000000026
:105A80000000000000000000000000000000000016
:105A90000000000000000000000000000000000006
:105AA00000000000000000000000000000000000F6
:105AB00000000000000000000000000000000000E6
:105AC00000000000000000000000000000000000D6
